:060000000A128A11BF2F55
:100F7E0083010A128A11C32F83160313860183126B
:100F8E0003138601CA2F081ECD2FCE2FD62F013068
:100F9E008606D12F081AD42FD52FD12FD62F881EE3
:100FAE00D92FDA2FE22F02308606DD2F881AE02F96
:100FBE00E12FDD2FE22F081FE52FE62FEE2F043055
:100FCE008606E92F081BEC2FED2FE92FEE2F881F39
:100FDE00F12FF22FCA2F08308606F52F881BF82F17
:100FEE00F92FF52FCA2FCA2FCA2FCA2F0A128A110C
:020FFE000028C9
:02400E003AFF77
:00000001FF
